{
  "contractName": "Proxy",
  "abi": [
    {
      "inputs": [],
      "stateMutability": "nonpayable",
      "type": "constructor"
    },
    {
      "anonymous": false,
      "inputs": [
        {
          "indexed": true,
          "internalType": "address",
          "name": "previousOwner",
          "type": "address"
        },
        {
          "indexed": true,
          "internalType": "address",
          "name": "newOwner",
          "type": "address"
        }
      ],
      "name": "OwnershipTransferred",
      "type": "event"
    },
    {
      "anonymous": false,
      "inputs": [
        {
          "indexed": true,
          "internalType": "address",
          "name": "implementation",
          "type": "address"
        }
      ],
      "name": "Upgraded",
      "type": "event"
    },
    {
      "stateMutability": "payable",
      "type": "fallback"
    },
    {
      "inputs": [],
      "name": "implementation",
      "outputs": [
        {
          "internalType": "address",
          "name": "impl",
          "type": "address"
        }
      ],
      "stateMutability": "view",
      "type": "function"
    },
    {
      "inputs": [],
      "name": "isOwner",
      "outputs": [
        {
          "internalType": "bool",
          "name": "",
          "type": "bool"
        }
      ],
      "stateMutability": "view",
      "type": "function"
    },
    {
      "inputs": [],
      "name": "owner",
      "outputs": [
        {
          "internalType": "address",
          "name": "",
          "type": "address"
        }
      ],
      "stateMutability": "view",
      "type": "function"
    },
    {
      "inputs": [],
      "name": "renounceOwnership",
      "outputs": [],
      "stateMutability": "nonpayable",
      "type": "function"
    },
    {
      "inputs": [
        {
          "internalType": "address",
          "name": "newOwner",
          "type": "address"
        }
      ],
      "name": "transferOwnership",
      "outputs": [],
      "stateMutability": "nonpayable",
      "type": "function"
    },
    {
      "inputs": [
        {
          "internalType": "address",
          "name": "newImplementation",
          "type": "address"
        }
      ],
      "name": "upgradeTo",
      "outputs": [],
      "stateMutability": "nonpayable",
      "type": "function"
    },
    {
      "stateMutability": "payable",
      "type": "receive"
    }
  ],
  "bytecode": "0x608060405234801561001057600080fd5b5061002361002860201b6104de1760201c565b6100f9565b61003a61003c60201b6104e81760201c565b565b336000806101000a81548173ffffffffffffffffffffffffffffffffffffffff021916908373ffffffffffffffffffffffffffffffffffffffff16021790555060008054906101000a900473ffffffffffffffffffffffffffffffffffffffff1673ffffffffffffffffffffffffffffffffffffffff16600073ffffffffffffffffffffffffffffffffffffffff167f8be0079c531659141344cd1fd0a4f28419497f9722a3daafe3b4186f6b6457e060405160405180910390a3565b610869806101086000396000f3fe6080604052600436106100595760003560e01c80633659cfe6146100725780635c60da1b1461009b578063715018a6146100c65780638da5cb5b146100dd5780638f32d59b14610108578063f2fde38b1461013357610068565b366100685761006661015c565b005b61007061015c565b005b34801561007e57600080fd5b5061009960048036038101906100949190610644565b61018e565b005b3480156100a757600080fd5b506100b0610224565b6040516100bd9190610757565b60405180910390f35b3480156100d257600080fd5b506100db610255565b005b3480156100e957600080fd5b506100f261035a565b6040516100ff9190610757565b60405180910390f35b34801561011457600080fd5b5061011d610383565b60405161012a9190610772565b60405180910390f35b34801561013f57600080fd5b5061015a60048036038101906101559190610644565b6103da565b005b6000610166610224565b90503660008037600080366000845af43d6000803e8060008114610189573d6000f35b3d6000fd5b610196610383565b6101d5576040517f08c379a00000000000000000000000000000000000000000000000000000000081526004016101cc906107ad565b60405180910390fd5b6101de816105a5565b8073ffffffffffffffffffffffffffffffffffffffff167fbc7cd75a20ee27fd9adebab32041f755214dbc6bffa90cc0225b39da2e5c2d3b60405160405180910390a250565b6000807f360894a13ba1a3210667c828492db98dca3e2076cc3735a920a3ca505d382bbc60001b9050805491505090565b61025d610383565b61029c576040517f08c379a0000000000000000000000000000000000000000000000000000000008152600401610293906107ad565b60405180910390fd5b600073ffffffffffffffffffffffffffffffffffffffff1660008054906101000a900473ffffffffffffffffffffffffffffffffffffffff1673ffffffffffffffffffffffffffffffffffffffff167f8be0079c531659141344cd1fd0a4f28419497f9722a3daafe3b4186f6b6457e060405160405180910390a360008060006101000a81548173ffffffffffffffffffffffffffffffffffffffff021916908373ffffffffffffffffffffffffffffffffffffffff160217905550565b60008060009054906101000a900473ffffffffffffffffffffffffffffffffffffffff16905090565b60008060009054906101000a900473ffffffffffffffffffffffffffffffffffffffff1673ffffffffffffffffffffffffffffffffffffffff163373ffffffffffffffffffffffffffffffffffffffff1614905090565b6103e2610383565b610421576040517f08c379a0000000000000000000000000000000000000000000000000000000008152600401610418906107ad565b60405180910390fd5b8073ffffffffffffffffffffffffffffffffffffffff1660008054906101000a900473ffffffffffffffffffffffffffffffffffffffff1673ffffffffffffffffffffffffffffffffffffffff167f8be0079c531659141344cd1fd0a4f28419497f9722a3daafe3b4186f6b6457e060405160405180910390a3806000806101000a81548173ffffffffffffffffffffffffffffffffffffffff021916908373ffffffffffffffffffffffffffffffffffffffff16021790555050565b6104e66104e8565b565b336000806101000a81548173ffffffffffffffffffffffffffffffffffffffff021916908373ffffffffffffffffffffffffffffffffffffffff16021790555060008054906101000a900473ffffffffffffffffffffffffffffffffffffffff1673ffffffffffffffffffffffffffffffffffffffff16600073ffffffffffffffffffffffffffffffffffffffff167f8be0079c531659141344cd1fd0a4f28419497f9722a3daafe3b4186f6b6457e060405160405180910390a3565b6105ae8161061c565b6105ed576040517f08c379a00000000000000000000000000000000000000000000000000000000081526004016105e49061078d565b60405180910390fd5b60007f360894a13ba1a3210667c828492db98dca3e2076cc3735a920a3ca505d382bbc60001b90508181555050565b600080823b905060008111915050919050565b60008135905061063e8161081c565b92915050565b60006020828403121561065657600080fd5b60006106648482850161062f565b91505092915050565b610676816107de565b82525050565b610685816107f0565b82525050565b6000610698604b836107cd565b91507f5570677261646561626c6550726f78793a3a5f736574496d706c656d656e746160008301527f74696f6e3a3a206e657720696d706c656d656e746174696f6e206973206e6f7460208301527f206120636f6e74726163740000000000000000000000000000000000000000006040830152606082019050919050565b6000610724600a836107cd565b91507f6f6e6c79206f776e6572000000000000000000000000000000000000000000006000830152602082019050919050565b600060208201905061076c600083018461066d565b92915050565b6000602082019050610787600083018461067c565b92915050565b600060208201905081810360008301526107a68161068b565b9050919050565b600060208201905081810360008301526107c681610717565b9050919050565b600082825260208201905092915050565b60006107e9826107fc565b9050919050565b60008115159050919050565b600073ffffffffffffffffffffffffffffffffffffffff82169050919050565b610825816107de565b811461083057600080fd5b5056fea26469706673582212200f307dded8d408ac6115249e8c8404df2b3e7a5b04398826a0d869648cb82e1e64736f6c63430008000033",
  "immutableReferences": {},
  "source": "// SPDX-License-Identifier: MIT\npragma solidity ^0.8.0;\n\nimport { UpgradeabilityProxy } from \"@pefish/solidity-lib/contracts/contract/UpgradeabilityProxy.sol\";\n\ncontract Proxy is UpgradeabilityProxy {\n  constructor() {\n    UpgradeabilityProxy.__UpgradeabilityProxy_init();\n  }\n}\n",
  "sourcePath": "/Users/pefish/Work/solidity/create-solidity-dapp-template/contracts/Proxy.sol",
  "compiler": {
    "name": "solc",
    "version": "0.8.0+commit.c7dfd78e.Emscripten.clang"
  },
  "schemaVersion": "3.3.4",
  "updatedAt": "2021-04-14T11:16:36.809Z",
  "devdoc": {
    "kind": "dev",
    "methods": {
      "isOwner()": {
        "returns": {
          "_0": "true if `msg.sender` is the owner of the contract."
        }
      },
      "owner()": {
        "returns": {
          "_0": "the address of the owner."
        }
      },
      "renounceOwnership()": {
        "details": "Allows the current owner to relinquish control of the contract."
      },
      "transferOwnership(address)": {
        "details": "Allows the current owner to transfer control of the contract to a newOwner.",
        "params": {
          "newOwner": "The address to transfer ownership to."
        }
      }
    },
    "version": 1
  },
  "userdoc": {
    "kind": "user",
    "methods": {
      "renounceOwnership()": {
        "notice": "Renouncing to ownership will leave the contract without an owner. It will not be possible to call the functions with the `onlyOwner` modifier anymore."
      }
    },
    "version": 1
  }
}