{
  "contractName": "Test",
  "abi": [
    {
      "anonymous": false,
      "inputs": [
        {
          "indexed": true,
          "internalType": "address",
          "name": "previousOwner",
          "type": "address"
        },
        {
          "indexed": true,
          "internalType": "address",
          "name": "newOwner",
          "type": "address"
        }
      ],
      "name": "OwnershipTransferred",
      "type": "event"
    },
    {
      "anonymous": false,
      "inputs": [
        {
          "indexed": false,
          "internalType": "uint256",
          "name": "words",
          "type": "uint256"
        }
      ],
      "name": "StoreWords",
      "type": "event"
    },
    {
      "inputs": [],
      "name": "isOwner",
      "outputs": [
        {
          "internalType": "bool",
          "name": "",
          "type": "bool"
        }
      ],
      "stateMutability": "view",
      "type": "function"
    },
    {
      "inputs": [],
      "name": "owner",
      "outputs": [
        {
          "internalType": "address",
          "name": "",
          "type": "address"
        }
      ],
      "stateMutability": "view",
      "type": "function"
    },
    {
      "inputs": [],
      "name": "renounceOwnership",
      "outputs": [],
      "stateMutability": "nonpayable",
      "type": "function"
    },
    {
      "inputs": [
        {
          "internalType": "address",
          "name": "newOwner",
          "type": "address"
        }
      ],
      "name": "transferOwnership",
      "outputs": [],
      "stateMutability": "nonpayable",
      "type": "function"
    },
    {
      "stateMutability": "payable",
      "type": "receive"
    },
    {
      "inputs": [
        {
          "internalType": "uint256",
          "name": "_words",
          "type": "uint256"
        }
      ],
      "name": "init",
      "outputs": [],
      "stateMutability": "nonpayable",
      "type": "function"
    },
    {
      "inputs": [
        {
          "internalType": "uint256",
          "name": "words_",
          "type": "uint256"
        }
      ],
      "name": "storeWords",
      "outputs": [],
      "stateMutability": "payable",
      "type": "function"
    },
    {
      "inputs": [],
      "name": "getWords",
      "outputs": [
        {
          "internalType": "uint256",
          "name": "",
          "type": "uint256"
        }
      ],
      "stateMutability": "view",
      "type": "function"
    }
  ],
  "bytecode": "0x608060405234801561001057600080fd5b506108d0806100206000396000f3fe6080604052600436106100745760003560e01c80638f32d59b1161004e5780638f32d59b146100de578063b7b0422d14610109578063dca7bcbe14610132578063f2fde38b1461015d5761007b565b806327269dae14610080578063715018a61461009c5780638da5cb5b146100b35761007b565b3661007b57005b600080fd5b61009a60048036038101906100959190610686565b610186565b005b3480156100a857600080fd5b506100b16101c9565b005b3480156100bf57600080fd5b506100c86102d1565b6040516100d59190610782565b60405180910390f35b3480156100ea57600080fd5b506100f36102fb565b604051610100919061079d565b60405180910390f35b34801561011557600080fd5b50610130600480360381019061012b9190610686565b610353565b005b34801561013e57600080fd5b5061014761044b565b60405161015491906107f8565b60405180910390f35b34801561016957600080fd5b50610184600480360381019061017f919061065d565b610455565b005b806034819055507f5f066c81bc46f87b920ee0a528fc7addad688ea65003141a492f517089764a716034546040516101be91906107f8565b60405180910390a150565b6101d16102fb565b610210576040517f08c379a0000000000000000000000000000000000000000000000000000000008152600401610207906107d8565b60405180910390fd5b600073ffffffffffffffffffffffffffffffffffffffff16603360009054906101000a900473ffffffffffffffffffffffffffffffffffffffff1673ffffffffffffffffffffffffffffffffffffffff167f8be0079c531659141344cd1fd0a4f28419497f9722a3daafe3b4186f6b6457e060405160405180910390a36000603360006101000a81548173ffffffffffffffffffffffffffffffffffffffff021916908373ffffffffffffffffffffffffffffffffffffffff160217905550565b6000603360009054906101000a900473ffffffffffffffffffffffffffffffffffffffff16905090565b6000603360009054906101000a900473ffffffffffffffffffffffffffffffffffffffff1673ffffffffffffffffffffffffffffffffffffffff163373ffffffffffffffffffffffffffffffffffffffff1614905090565b600060019054906101000a900460ff1680610372575061037161055c565b5b80610388575060008054906101000a900460ff16155b6103c7576040517f08c379a00000000000000000000000000000000000000000000000000000000081526004016103be906107b8565b60405180910390fd5b60008060019054906101000a900460ff161590508015610417576001600060016101000a81548160ff02191690831515021790555060016000806101000a81548160ff0219169083151502179055505b61041f610573565b8160348190555080156104475760008060016101000a81548160ff0219169083151502179055505b5050565b6000603454905090565b61045d6102fb565b61049c576040517f08c379a0000000000000000000000000000000000000000000000000000000008152600401610493906107d8565b60405180910390fd5b8073ffffffffffffffffffffffffffffffffffffffff16603360009054906101000a900473ffffffffffffffffffffffffffffffffffffffff1673ffffffffffffffffffffffffffffffffffffffff167f8be0079c531659141344cd1fd0a4f28419497f9722a3daafe3b4186f6b6457e060405160405180910390a380603360006101000a81548173ffffffffffffffffffffffffffffffffffffffff021916908373ffffffffffffffffffffffffffffffffffffffff16021790555050565b6000803090506000813b9050600081149250505090565b33603360006101000a81548173ffffffffffffffffffffffffffffffffffffffff021916908373ffffffffffffffffffffffffffffffffffffffff160217905550603360009054906101000a900473ffffffffffffffffffffffffffffffffffffffff1673ffffffffffffffffffffffffffffffffffffffff16600073ffffffffffffffffffffffffffffffffffffffff167f8be0079c531659141344cd1fd0a4f28419497f9722a3daafe3b4186f6b6457e060405160405180910390a3565b6000813590506106428161086c565b92915050565b60008135905061065781610883565b92915050565b60006020828403121561066f57600080fd5b600061067d84828501610633565b91505092915050565b60006020828403121561069857600080fd5b60006106a684828501610648565b91505092915050565b6106b881610824565b82525050565b6106c781610836565b82525050565b60006106da602e83610813565b91507f436f6e747261637420696e7374616e63652068617320616c726561647920626560008301527f656e20696e697469616c697a65640000000000000000000000000000000000006020830152604082019050919050565b6000610740600a83610813565b91507f6f6e6c79206f776e6572000000000000000000000000000000000000000000006000830152602082019050919050565b61077c81610862565b82525050565b600060208201905061079760008301846106af565b92915050565b60006020820190506107b260008301846106be565b92915050565b600060208201905081810360008301526107d1816106cd565b9050919050565b600060208201905081810360008301526107f181610733565b9050919050565b600060208201905061080d6000830184610773565b92915050565b600082825260208201905092915050565b600061082f82610842565b9050919050565b60008115159050919050565b600073ffffffffffffffffffffffffffffffffffffffff82169050919050565b6000819050919050565b61087581610824565b811461088057600080fd5b50565b61088c81610862565b811461089757600080fd5b5056fea2646970667358221220598b4771d746df692dee9c20fdd72edf48c524931cbad05dac19b46ae9eeb06564736f6c63430008000033",
  "immutableReferences": {},
  "source": "// SPDX-License-Identifier: MIT\npragma solidity ^0.8.0;\n\nimport { Initializable } from \"@pefish/solidity-lib/contracts/contract/Initializable.sol\";\nimport { Ownable } from \"@pefish/solidity-lib/contracts/contract/Ownable.sol\";\n\ncontract Test is Initializable, Ownable {\n    event StoreWords(uint256 words);\n\n    uint256 private words;\n\n    function init(uint256 _words) external initializer {  // init datas\n        Ownable.__Ownable_init();\n        words = _words;\n    }\n\n    function storeWords(uint256 words_) public payable {\n        words = words_;\n        emit StoreWords(words);\n    }\n\n    function getWords() public view returns (uint256) {\n        return words;\n    }\n\n    receive() external payable {}\n}\n",
  "sourcePath": "/Users/pefish/Work/solidity/create-solidity-dapp-template/contracts/Test.sol",
  "compiler": {
    "name": "solc",
    "version": "0.8.0+commit.c7dfd78e.Emscripten.clang"
  },
  "schemaVersion": "3.3.4",
  "updatedAt": "2021-04-14T11:16:36.810Z",
  "devdoc": {
    "kind": "dev",
    "methods": {
      "isOwner()": {
        "returns": {
          "_0": "true if `msg.sender` is the owner of the contract."
        }
      },
      "owner()": {
        "returns": {
          "_0": "the address of the owner."
        }
      },
      "renounceOwnership()": {
        "details": "Allows the current owner to relinquish control of the contract."
      },
      "transferOwnership(address)": {
        "details": "Allows the current owner to transfer control of the contract to a newOwner.",
        "params": {
          "newOwner": "The address to transfer ownership to."
        }
      }
    },
    "version": 1
  },
  "userdoc": {
    "kind": "user",
    "methods": {
      "renounceOwnership()": {
        "notice": "Renouncing to ownership will leave the contract without an owner. It will not be possible to call the functions with the `onlyOwner` modifier anymore."
      }
    },
    "version": 1
  }
}